:100000000C9462000C948A000C948A000C948A0070
:100010000C948A000C948A000C948A000C948A0038
:100020000C948A000C948A000C948A000C948A0028
:100030000C948A000C948A000C948A000C948A0018
:100040000C9495060C948A000C9463060C943D065F
:100050000C948A000C948A000C948A000C948A00F8
:100060000C948A000C948A000000000024002700F1
:100070002A0000000000250028002B0000000008D6
:10008000000201000003040700000000000000005F
:1000900000000000230026002900040404040404D6
:1000A0000404020202020202030303030303010227
:1000B00004081020408001020408102001020408F6
:1000C0001020DF0611241FBECFEFD8E0DEBFCDBF6A
:1000D00011E0A0E0B1E0E4E2F7E102C005900D928A
:1000E000AC35B107D9F722E0ACE5B1E001C01D9213
:1000F000A533B207E1F710E0C2E6D0E004C02197D3
:10010000FE010E948A0BC136D107C9F70E94480739
:100110000C94900B0C940000CF92DF92EF92FF9220
:10012000CF93DF93B0912902A0E08111AB2F809192
:100130002A0290E0880F991FAC0140575F4FC09092
:100140002F02D0903002E0903102F090320230E085
:1001500020E0FA01C591D491E881B90190E080E0F6
:10016000EB23EA130AC02F5F3F4F6C157D058E0508
:100170009F0578F36FEF7FEFCB01DF91CF91FF9079
:10018000EF90DF90CF900895AF92BF92CF92DF9221
:10019000EF92FF920F931F93CF93DF936C017B013C
:1001A0008B01040F151FEB015E01AE18BF08C017CD
:1001B000D10759F06991D601ED91FC910190F08140
:1001C000E02DC6010995892B79F7C501DF91CF9103
:1001D0001F910F91FF90EF90DF90CF90BF90AF9065
:1001E0000895FC01538D448D252F30E0842F90E03D
:1001F000821B930B541710F0CF9608950197089522
:10020000FC01918D828D981761F0A28DAE0FBF2FEA
:10021000B11D5D968C91928D9F5F9F73928F90E040
:1002200008958FEF9FEF0895FC01918D828D9817AF
:1002300031F0828DE80FF11D858D90E008958FEFEC
:100240009FEF0895FC01918D228D892F90E0805CB5
:100250009F4F821B91098F73992708958DE691E036
:100260000E94220121E0892B09F420E0822F0895C9
:1002700080E090E0892B29F00E942E0181110C94DE
:1002800000000895FC01A48DA80FB92FB11DA35A39
:10029000BF4F2C91848D90E001968F739927848FA6
:1002A000A689B7892C93A089B1898C9183708064C9
:1002B0008C93938D848D981306C00288F389E02D6A
:1002C00080818F7D80830895EF92FF920F931F931B
:1002D000CF93DF93EC0181E0888F9B8D8C8D9813F9
:1002E0001AC0E889F989808185FF15C09FB7F89405
:1002F000EE89FF896083E889F98980818370806451
:1003000080839FBF81E090E0DF91CF911F910F919B
:10031000FF90EF900895F62E0B8D10E00F5F1F4FAA
:100320000F731127E02E8C8D8E110CC00FB607FCB9
:10033000FACFE889F989808185FFF5CFCE010E9447
:100340004201F1CFEB8DEC0FFD2FF11DE35AFF4F72
:10035000F0829FB7F8940B8FEA89FB8980818062D5
:10036000CFCFCF93DF93EC01888D8823B9F0AA8992
:10037000BB89E889F9898C9185FD03C0808186FD60
:100380000DC00FB607FCF7CF8C9185FFF2CF8081AF
:1003900085FFEDCFCE010E944201E9CFDF91CF91E1
:1003A000089590E0FC01E458FF4F2491FC01E255D0
:1003B000FF4F3491FC01E656FF4FE491EE23C9F064
:1003C000222339F0233001F1A8F4213019F1223031
:1003D00029F1F0E0EE0FFF1FEE58FF4FA591B49109
:1003E0008FB7F894EC91611126C030953E233C9371
:1003F0008FBF08952730A9F02830C9F0243049F77D
:10040000809180008F7D03C0809180008F778093E2
:100410008000DFCF84B58F7784BDDBCF84B58F7D3F
:10042000FBCF8091B0008F778093B000D2CF8091C6
:10043000B0008F7DF9CF3E2BDACFCF93DF9390E0E2
:10044000FC01E255FF4F249186569F4FFC01849199
:100450008823D1F090E0880F991FFC01E859FF4FE5
:10046000A591B491FC01EE58FF4FC591D491623033
:1004700071F49FB7F8943C91822F809583238C93DD
:10048000E8812E2B28839FBFDF91CF9108958FB7EE
:10049000F894EC912E2B2C938FBFF6CF3FB7F894A6
:1004A00080915D0190915E01A0915F01B09160012A
:1004B00026B5A89B05C02F3F19F00196A11DB11DBF
:1004C0003FBFBA2FA92F982F8827BC01CD01620FFB
:1004D000711D811D911D42E0660F771F881F991FB6
:1004E0004A95D1F708958F929F92AF92BF92CF9283
:1004F000DF92EF92FF924B015C010E944E026B0172
:100500007C010E944E026C197D098E099F09683E8C
:10051000734081059105A8F321E0821A9108A10892
:10052000B10888EEC80E83E0D81EE11CF11C8114CE
:100530009104A104B10429F7FF90EF90DF90CF90D0
:10054000BF90AF909F908F900895CF92DF92EF92DF
:10055000FF920F931F93CF93DF93CDB7DEB7C054B5
:10056000D1400FB6F894DEBF0FBECDBF2FB7F894C1
:100570008091690190916A01A0916B01B0916C0129
:100580002FBF40912B0250912C0260912D0270914F
:100590002E028C019D01041B150B260B370BB90194
:1005A000A801403D57406105710590F480913302E8
:1005B000C05CDE4F0FB6F894DEBF0FBECDBFDF913B
:1005C000CF911F910F91FF90EF90DF90CF90089502
:1005D00080932B0290932C02A0932D02B0932E02B5
:1005E00010922602109225021092240210922302E9
:1005F0001092220262E0809127020E941D0261E0B7
:1006000070E080E090E00E94730261E08091270238
:100610000E941D0260E0809127020E94D10180911A
:1006200028028551823020F58BE291E10197F1F7A4
:1006300062E0809127020E941D028091340290E0C6
:100640008230910538F0880F991F880F991F059700
:100650000197F1F7F89480E00E948C006F3F7F4F84
:100660008F4F9F4F61F410923302789480E0A0CFB7
:1006700064E170E080E090E00E947302D9CF81E0F5
:100680000E948C006F3F7F4F8F4F9F4F61F38E0111
:100690000F5F1F4F6E018FEBC81A8EEFD80A7801DB
:1006A00080E00E948C00F7016083718382839383D2
:1006B00081E00E948C00F7016483758386839783B1
:1006C000F8E0EF0EF11CEC14FD0451F7789430E0E3
:1006D00020E0F801C080D180E280F3804481558120
:1006E00066817781FFEFCF16DF06EF06FF0631F058
:1006F0004F3F8FEF58076807780719F410923302BD
:10070000B5CFF90183E0F595E7958A95E1F7EE5DC0
:10071000FD4F8081880FC416D506E606F70610F156
:1007200080832F5F3F4F085F1F4F2832310589F6C6
:10073000409126022091220280912302280F332724
:10074000331F80912402280F311D80912502820FD2
:10075000932F911D99274817190681F681E0809300
:10076000330226CF8160DCCF089590E080E00895C9
:10077000FC0101900020E9F73197AF01481B590BAC
:10078000BC018AE092E00C94C4008F929F92AF92D9
:10079000BF920F931F93CF93DF93CDB7DEB7A1978F
:1007A0000FB6F894DEBF0FBECDBF19A2423008F4D9
:1007B0004AE08E010F5D1F4F842E912CB12CA12C8D
:1007C000A50194010E94680BE62FB901CA01EA3025
:1007D000F4F4E05DD801EE938D01232B242B252B1F
:1007E00079F790E080E0109719F0CD010E94B803EE
:1007F000A1960FB6F894DEBF0FBECDBFDF91CF91AB
:100800001F910F91BF90AF909F908F900895E95CDA
:10081000E1CFCF93DF93EC0160E08E810E94D101A4
:1008200061E08E810E94D10160E08E810E94D10141
:100830008BE891E00197F1F7DF91CF910895CF9286
:10084000DF92EF92FF920F931F93CF93DF936C0190
:100850007C0187E0E80EF11CD0E0C0E0062F10E03C
:10086000B8010C2E02C0759567950A94E2F7617085
:10087000F70181917F010E94D1012196C430D105F9
:1008800079F7C601DF91CF911F910F91FF90EF9003
:10089000DF90CF900C940904CF92DF92EF92FF92F9
:1008A0000F931F93CF93DF93EC01F62E642F8C816F
:1008B0000E94D1018D818F3F19F060E00E94D1012B
:1008C0000F2D10E08F8584FF25C06E0187E0C80ED4
:1008D000D11CF12CE12CB8010E2C02C07595679546
:1008E0000A94E2F76170F60181916F010E94D101D3
:1008F000FFEFEF1AFF0A88E0E816F10461F7CE0176
:10090000DF91CF911F910F91FF90EF90DF90CF90EB
:100910000C940904B80184E0759567958A95E1F710
:10092000CE010E941F046F2DCE01DF91CF911F9148
:100930000F91FF90EF90DF90CF900C941F0440E058
:10094000682F8AE092E00C944C04CF93DF938230BE
:1009500029F49091190298609093190280931D02D6
:1009600010921E0280E480931F0280E18093200297
:1009700080E58093210261E080910E020E941D02B9
:1009800080910F028F3F19F061E00E941D0261E02B
:10099000809110020E941D02CAE0D2E09E012A50FE
:1009A00032408091190284FD0BC084E090E02196D2
:1009B0002817390744F461E08E810E941D02EECFB2
:1009C00088E090E0F4CF8BE39DE00197F1F760E0E1
:1009D00080910E020E94D10160E0809110020E947D
:1009E000D10180910F028F3F19F060E00E94D10188
:1009F0008091190284FD39C063E08AE092E00E9490
:100A00001F04CBE4D6E4CE010197F1F763E08AE05E
:100A100092E00E941F042197F1F763E08AE092E0E0
:100A20000E941F0483E592E00197F1F762E08AE0FB
:100A300092E00E941F048091190280620E949F042C
:100A400084E080931A028CE00E949F0481E00E945F
:100A50009F048BE39FE10197F1F782E080931B02F3
:100A600086E0DF91CF910C949F0480620E949F04E6
:100A70008BE496E40197F1F78091190280620E945D
:100A80009F0483E592E00197F1F78091190280625B
:100A90000E949F04D0CF90911D02891710F08FEF14
:100AA000890FE82FF0E0E65FFD4F848980680C94A1
:100AB0009F0441E00E944C0481E090E008954F9231
:100AC0005F926F927F928F929F92AF92BF92CF92DE
:100AD000DF92EF92FF920F931F93CF936B017C01F4
:100AE000742EAC019B010E94630B882399F08EE168
:100AF00091E0CF911F910F91FF90EF90DF90CF90F9
:100B0000BF90AF909F908F907F906F905F904F902D
:100B10000C94B80346015701E894B7F82FEF3FEF64
:100B20004FE75FE7C501B4010E94630B81110DC05F
:100B30002FEF3FEF4FE75FE7C501B4010E9499092E
:100B400018161CF482E291E0D4CF2FEF3FEF4FE76D
:100B50005FE4C701B6010E94F10A18161CF486E290
:100B600091E0C7CF2FEF3FEF4FE75FECC701B60132
:100B70000E94990987FDF3CF20E030E0A901C70169
:100B8000B6010E94990910E000E087FF0CC041E027
:100B90006DE28AE092E00E944C04F7FAF094F7F8D4
:100BA000F09401E010E0C0E060E070E080E09FE3DE
:100BB0007C1641F020E030E040E251E40E949E09C2
:100BC000CF5FF6CFA70196010E942D094B015C0172
:100BD0000E94100A2B013C014AE00E94C503080F45
:100BE000191FCC23C9F1C301B2010E943F0A9B0126
:100BF000AC01C501B4010E942C094B015C0141E02C
:100C00006EE28AE092E00E944C040F5F1F4FC150D9
:100C100018F120E030E040E251E4C501B4010E9447
:100C2000F60A2B013C010E94100A4B01B12CA12CA9
:100C30004AE0C501B4010E94C503080F191FC50190
:100C4000B4010E943F0A9B01AC01C301B2010E94A2
:100C50002C094B015C01DBCFC801CF911F910F9193
:100C6000FF90EF90DF90CF90BF90AF909F908F90CC
:100C70007F906F905F904F9008951F920F920FB6E4
:100C80000F9211242F933F934F935F936F937F9312
:100C90008F939F93AF93BF93EF93FF938DE691E074
:100CA0000E944201FF91EF91BF91AF919F918F916F
:100CB0007F916F915F914F913F912F910F900FBE58
:100CC0000F901F9018951F920F920FB60F9211243C
:100CD0002F938F939F93EF93FF93E0917D01F0917A
:100CE0007E018081E0918301F091840182FD1BC02F
:100CF0009081809186018F5F8F7320918701821789
:100D000041F0E0918601F0E0E359FE4F958F80932A
:100D10008601FF91EF919F918F912F910F900FBEC0
:100D20000F901F9018958081F4CF1F920F920FB6ED
:100D30000F9211242F933F938F939F93AF93BF9361
:100D40008091690190916A01A0916B01B0916C0151
:100D500030915C0123E0230F2D3758F50196A11D3A
:100D6000B11D20935C018093690190936A01A09367
:100D70006B01B0936C0180915D0190915E01A09137
:100D80005F01B09160010196A11DB11D80935D01CD
:100D900090935E01A0935F01B0936001BF91AF910A
:100DA0009F918F913F912F910F900FBE0F901F90A9
:100DB000189526E8230F0296A11DB11DD2CFEDE6AE
:100DC000F1E01382128288EE93E0A0E0B0E0848329
:100DD0009583A683B78384E091E09183808385EC3B
:100DE00090E09587848784EC90E09787868780ECF5
:100DF00090E0918B808B81EC90E0938B828B82ECE6
:100E000090E0958B848B86EC90E0978B868B118E8F
:100E1000128E138E148EA2E2B2E08BE015968C93A4
:100E2000159716968C931697E9EBF0E0E4911796D8
:100E3000EC931797E5EAF0E0E4911896EC93189795
:100E400040E85EE360E070E01D964D935D936D9326
:100E50007C935097EAE0F2E01382128286E191E0FF
:100E60009183808382E084838FEF858383E0868310
:100E700084E0878385E0808786E0818787E08287BA
:100E80001386148615861686178681E00C94A504B1
:100E9000789484B5826084BD84B5816084BD85B555
:100EA000826085BD85B5816085BD80916E00816061
:100EB00080936E0010928100809181008260809307
:100EC0008100809181008160809381008091800009
:100ED0008160809380008091B10084608093B10034
:100EE0008091B00081608093B00080917A0084602E
:100EF00080937A0080917A00826080937A0080915A
:100F00007A00816080937A0080917A008068809373
:100F10007A001092C100E0917D01F0917E0182E0A3
:100F20008083E0917901F0917A011082E0917B0158
:100F3000F0917C018FEC808310928501E09181011A
:100F4000F091820186E08083E0917F01F091800141
:100F5000808180618083E0917F01F09180018081B8
:100F600088608083E0917F01F091800180818068BA
:100F70008083E0917F01F091800180818F7D80836B
:100F800061E089E00E941D0262E0809127020E94D8
:100F90001D022FB7F8948091690190916A01A09188
:100FA0006B01B0916C012FBF805D9740A109B10921
:100FB00080932B0290932C02A0932D02B0932E02CB
:100FC00087E38093340282E00E94A50480E00E94BF
:100FD0004B058AE291E00E94B80381E00E944B0534
:100FE00087E391E00E94B80360ED77E080E090E055
:100FF0000E94730281E00E949F048BE39FE10197AE
:10100000F1F7C0E0D0E00E94A502882349F080916A
:1010100028028B3028F08D3040F085518230D0F19D
:1010200060E070E080EC9FE71CC06091230270E0FC
:1010300090E080E00E94410A2DEC3CEC4CEC5DE33A
:101040000E94F60A6B017C016091220270E090E040
:1010500080E00E94410A9B01AC01C701B6010E94D9
:101060002D096093650170936601809367019093E9
:1010700068010E94A502882341F0809128028C30EB
:1010800009F4CAC0C8F48B3081F160E070E080ECF4
:101090009FE753C060912202709123027627672751
:1010A000762790E080E00E943F0A2DEC3CEC4CEC6F
:1010B0005DE30E94F60AD5CF8551823030F710915A
:1010C0002402612F70E0762F662766277F77809154
:1010D0002502682B90E080E00E943F0A2DEC3CEC5A
:1010E0004CEC5DE30E94F60AB3C06091240270E00C
:1010F00090E080E00E943F0A6B017C011091250284
:1011000017FF0AC0AC019B0160E070E080E89FEB34
:101110000E942C096B017C011F70612F70E090E030
:1011200080E00E94410A2DEC3CEC4CEC5DE30E9417
:10113000F60AA70196010E942D0960936101709340
:101140006201809363019093640180E00E944B05EB
:1011500088E491E00E94B80360916101709162019E
:10116000809163019091640142E00E945F058FE4E9
:1011700091E00E94B80381E00E944B0582E591E076
:101180000E94B803609165017091660180916701CA
:101190009091680142E00E945F0589E591E00E941C
:1011A000B80320E030E044EA52E4609165017091B8
:1011B000660180916701909168010E94F10A87FFA2
:1011C00010C020E030E040EF51E460916101709187
:1011D000620180916301909164010E94F10A60E0D4
:1011E00087FF61E089E00E94D10164EF71E080E057
:1011F00090E00E94730264EF71E080E090E00E9452
:101200007302209709F4FFCE0E942E01882309F46F
:10121000FACE0E940000F7CE10912402612F70E0F8
:1012200090E080E00E943F0A6B017C016091250202
:101230006F7070E090E080E00E94410A2DEC3CEC81
:101240004CEC5DE30E94F60AA70196010E942D096D
:1012500017FF73CF905871CF5058BB27AA270E9411
:1012600044090C94B70A0E94A90A38F00E94B00AF7
:1012700020F039F49F3F19F426F40C94A60A0EF4DA
:10128000E095E7FB0C94A00AE92F0E94C80A58F3E6
:10129000BA17620773078407950720F079F4A6F55B
:1012A0000C94EA0A0EF4E0950B2EBA2FA02D0B0138
:1012B000B90190010C01CA01A0011124FF27591B9B
:1012C00099F0593F50F4503E68F11A16F040A22FA1
:1012D000232F342F4427585FF3CF46953795279512
:1012E000A795F0405395C9F77EF41F16BA0B620B11
:1012F000730B840BBAF09150A1F0FF0FBB1F661F58
:10130000771F881FC2F70EC0BA0F621F731F841F9A
:1013100048F4879577956795B795F7959E3F08F0C0
:10132000B0CF9395880F08F09927EE0F9795879582
:1013300008950E947C0A08F481E008950E94B20991
:101340000C94B70A0E94B00A58F00E94A90A40F013
:1013500029F45F3F29F00C94A00A51110C94EB0A78
:101360000C94A60A0E94C80A68F39923B1F3552386
:1013700091F3951B550BBB27AA27621773078407A8
:1013800038F09F5F5F4F220F331F441FAA1FA9F33E
:1013900035D00E2E3AF0E0E832D091505040E6952C
:1013A000001CCAF72BD0FE2F29D0660F771F881F8D
:1013B000BB1F261737074807AB07B0E809F0BB0B80
:1013C000802DBF01FF2793585F4F3AF09E3F510594
:1013D00078F00C94A00A0C94EB0A5F3FE4F3983E7B
:1013E000D4F3869577956795B795F7959F5FC9F77D
:1013F000880F911D9695879597F90895E1E0660FFE
:10140000771F881FBB1F621773078407BA0720F076
:10141000621B730B840BBA0BEE1F88F7E0950895DF
:101420000E94D00A88F09F5798F0B92F9927B7519A
:10143000B0F0E1F0660F771F881F991F1AF0BA9578
:10144000C9F714C0B13091F00E94EA0AB1E00895E2
:101450000C94EA0A672F782F8827B85F39F0B93FD4
:10146000CCF3869577956795B395D9F73EF490952B
:101470008095709561957F4F8F4F9F4F0895E894A9
:1014800009C097FB3EF490958095709561957F4FCC
:101490008F4F9F4F9923A9F0F92F96E9BB2793957A
:1014A000F695879577956795B795F111F8CFFAF48A
:1014B000BB0F11F460FF1BC06F5F7F4F8F4F9F4FBB
:1014C00016C0882311F096E911C0772321F09EE819
:1014D000872F762F05C0662371F096E8862F70E07F
:1014E00060E02AF09A95660F771F881FDAF7880F59
:1014F0009695879597F90895990F0008550FAA0BAF
:10150000E0E8FEEF16161706E807F907C0F0121616
:101510001306E407F50798F0621B730B840B950B19
:1015200039F40A2661F0232B242B252B21F408956E
:101530000A2609F4A140A6958FEF811D811D08950B
:1015400097F99F6780E870E060E008959FEF80EC76
:10155000089500240A941616170618060906089519
:1015600000240A9412161306140605060895092E7F
:101570000394000C11F4882352F0BB0F40F4BF2BEE
:1015800011F460FF04C06F5F7F4F8F4F9F4F08952E
:1015900057FD9058440F551F59F05F3F71F0479524
:1015A000880F97FB991F61F09F3F79F08795089509
:1015B000121613061406551FF2CF4695F1DF08C028
:1015C000161617061806991FF1CF86957105610545
:1015D00008940895E894BB2766277727CB0197F9ED
:1015E00008950E947C0A08F48FEF08950E94090B69
:1015F0000C94B70A0E94A90A38F00E94B00A20F0A1
:10160000952311F00C94A00A0C94A60A11240C94B2
:10161000EB0A0E94C80A70F3959FC1F3950F50E042
:10162000551F629FF001729FBB27F00DB11D639F94
:10163000AA27F00DB11DAA1F649F6627B00DA11D3A
:10164000661F829F2227B00DA11D621F739FB00DE0
:10165000A11D621F839FA00D611D221F749F332750
:10166000A00D611D231F849F600D211D822F762FE9
:101670006A2F11249F5750409AF0F1F088234AF0C6
:10168000EE0FFF1FBB1F661F771F881F9150504032
:10169000A9F79E3F510580F00C94A00A0C94EB0A28
:1016A0005F3FE4F3983ED4F3869577956795B795B9
:1016B000F795E7959F5FC1F7FE2B880F911D9695D3
:1016C000879597F908950E947C0A880B990B0895D5
:1016D000A1E21A2EAA1BBB1BFD010DC0AA1FBB1F36
:1016E000EE1FFF1FA217B307E407F50720F0A21BA8
:1016F000B30BE40BF50B661F771F881F991F1A9415
:1017000069F760957095809590959B01AC01BD013E
:10171000CF010895EE0FFF1F0590F491E02D09947D
:04172000F894FFCF6B
:10172400000000006401C400F100B10122010001C5
:101734001401000000005905C400B503B4036E6130
:101744006E00696E66006F7666002020446F6E65D9
:101754002062792020200020205465616D203132E0
:101764002E2E2E202020200054656D703A20004338
:0C1774002E0048756D693A200025200009
:00000001FF
